{
  "abi": [
    {
      "inputs": [
        {
          "internalType": "string",
          "name": "fileName",
          "type": "string"
        }
      ],
      "name": "deployContract",
      "outputs": [
        {
          "internalType": "address",
          "name": "",
          "type": "address"
        }
      ],
      "stateMutability": "nonpayable",
      "type": "function"
    }
  ],
  "bytecode": {
    "object": "0x6080604052600080546001600160a01b031916737109709ecfa91a80626ff3989d68f67f5b1dd12d17905534801561003657600080fd5b50610494806100466000396000f3fe608060405234801561001057600080fd5b506004361061002b5760003560e01c8063c32723ed14610030575b600080fd5b61004361003e3660046102a7565b61005f565b6040516001600160a01b03909116815260200160405180910390f35b60408051600380825260808201909252600091829190816020015b606081526020019060019003908161007a5790505090506040518060400160405280600781526020016679756c2d6c6f6760c81b815250816000815181106100c4576100c4610327565b602002602001018190525082816001815181106100e3576100e3610327565b60200260200101819052506040518060400160405280600881526020016762797465636f646560c01b8152508160028151811061012257610122610327565b602090810291909101015260008054604051638916046760e01b81526001600160a01b039091169063891604679061015e90859060040161036d565b6000604051808303816000875af115801561017d573d6000803e3d6000fd5b505050506040513d6000823e601f3d908101601f191682016040526101a591908101906103e7565b8060200190518101906101b891906103e7565b905060008151602083016000f090506001600160a01b0381166102305760405162461bcd60e51b815260206004820152602660248201527f59756c704465706c6f79657220636f756c64206e6f74206465706c6f7920636f6044820152651b9d1c9858dd60d21b606482015260840160405180910390fd5b949350505050565b634e487b7160e01b600052604160045260246000fd5b604051601f8201601f1916810167ffffffffffffffff8111828210171561027757610277610238565b604052919050565b600067ffffffffffffffff82111561029957610299610238565b50601f01601f191660200190565b6000602082840312156102b957600080fd5b813567ffffffffffffffff8111156102d057600080fd5b8201601f810184136102e157600080fd5b80356102f46102ef8261027f565b61024e565b81815285602083850101111561030957600080fd5b81602084016020830137600091810160200191909152949350505050565b634e487b7160e01b600052603260045260246000fd5b60005b83811015610358578181015183820152602001610340565b83811115610367576000848401525b50505050565b6000602080830181845280855180835260408601915060408160051b870101925083870160005b828110156103da57878503603f19018452815180518087526103bb818989018a850161033d565b601f01601f191695909501860194509285019290850190600101610394565b5092979650505050505050565b6000602082840312156103f957600080fd5b815167ffffffffffffffff81111561041057600080fd5b8201601f8101841361042157600080fd5b805161042f6102ef8261027f565b81815285602083850101111561044457600080fd5b61045582602083016020860161033d565b9594505050505056fea264697066735822122032b4e012519e4b0e273aa48c3dcd694fb274af84145efc2df7e882f85d6f540c64736f6c634300080c0033",
    "linkReferences": {}
  }
}